:020000040800F2
:10000000089F00204D010008C140000899320008F7
:10001000893F0008690A00087D49000800000000C7
:10002000000000000000000000000000E5420008A1
:10003000230B00080000000049410008E7420008C7
:1000400067010008670100086701000867010008F0
:1000500067010008670100086701000867010008E0
:10006000670100086701000867010008C90A000865
:10007000670100086701000867010008D50A000849
:10008000E10A0008ED0A000867010008670100089E
:1000900067010008670100086701000867010008A0
:1000A0006701000867010008670100086701000890
:1000B0006701000867010008670100086701000880
:1000C0006701000867010008670100086701000870
:1000D0004D410008670100087149000867010008E8
:1000E0006701000867010008670100086701000850
:1000F0006701000867010008670100086701000840
:10010000670100086701000867010008670100082F
:1001100067010008670100086701000869430008DB
:10012000670100086701000867010008670100080F
:10013000DFF810D000F02EFB00480047914F000878
:10014000AFF30080089F002040BA70470648804700
:1001500006480047FEE7FEE7FEE7FEE7FEE7FEE7AC
:10016000FEE7FEE7FEE7FEE7654300083101000811
:10017000202A04DB203A21FA02F00021704721FAFC
:1001800002F3D040C2F12002914008431946704763
:10019000D2B201E000F8012B491EFBD270470022C9
:1001A000F6E710B513460A4604461946FFF7F0FF76
:1001B000204610BDF0B480EA0102D40F4200B2EB39
:1001C000410F02D20246084611464A0042D0C30DF2
:1001D000DDB2C1F3C752AD1A202D35DAC1F31601D5
:1001E00041F4000204B15242C5F1200602FA06F1C0
:1001F0002A411044B3EBD05F23D0C4B1012DA0EB52
:10020000C35009DCF0BC4FF0004202EAC352DBB23B
:1002100000F5000000F033BA400000F1807000EB00
:10022000C350A0F1807040EAD170490009E049084C
:1002300041EAC071A0EBC35000F50000400800EB9C
:10024000C350F0BC00F012BA6142012202EB41013E
:10025000001BF6E7F0BC704781F00041AAE780F090
:100260000040A7E780EA010210B502F00043400019
:1002700022D04A001FD0010E01EB1261C0F35600DC
:10028000C2F3560240F4000042F40002A0FB022038
:1002900000047F39140400D0401C50EA124001D4FD
:1002A0004000491EC2B20C0604EBD010401C4008AE
:1002B000802A02D003E0002010BD20F001000029B8
:1002C00000DA0020184310BD2DE9FE4F81EA030437
:1002D00004F0004421F0004100944FF0000B23F0A3
:1002E000004350EA01045ED052EA03045BD0C3F33A
:1002F0000A54C1F30A552C44A4F2F3340194A0FB30
:100300000254C1F3130141F48011C3F3130343F406
:10031000801301FB024400FB034E840A970A44EA5F
:10032000815447EA8357A4FB076802958D0A05FBB1
:1003300007854FEA932C04FB0C542705029D4FEAD6
:10034000065847EA1637B5EB08056EEB070C870E23
:10035000920E47EA811742EA8312A7FB0201B6EB2D
:100360000B0164EB00042B0D43EA0C335E1844EBE5
:100370001C50DA465146E7FB0201C5F313044FEA6D
:100380000B3343EA14534FEA0432019C43EA060359
:10039000A4F10C040294009CCDE900B400F0ACF987
:1003A00003B0BDE8F08F00200146F9E72DE9F04DDC
:1003B00081EA030404F0004B21F0004514464FF09D
:1003C000000A23F0004150EA050220D054EA01025D
:1003D0001DD0C5F30A570246C5F31303C1F313003A
:1003E000C1F30A5640F4801543F48013A7EB0608C6
:1003F000101BD64608F2FD3873EB050002D308F156
:10040000010801E092185B41B8F1000F03DA002007
:100410000146BDE8F08D00204FF480110646844669
:100420000EE0171B73EB050705D3121B63EB0503E7
:1004300006434CEA010C49084FEA300092185B4130
:1004400050EA0107EDD152EA030012D082EA04001B
:1004500083EA0501084305D0101BAB4106D20122F7
:10046000002306E000224FF0004302E06FF001029B
:1004700053101AEB06004CEB085110EB0A0041EB4D
:100480000B01BDE8F04D00F028B9C10F80EAE07023
:100490000844CA079623002100F0F1B896230022F1
:1004A000114600F0ECB80EB5C10F80EAE0700844C8
:1004B000CA07002140F233438DE80E000A460B467E
:1004C00000F01AF903B000BD0EB540F233410291BD
:1004D0000021CDE900110A460B4600F00DF903B0EA
:1004E00000BD00F0004220F00040C10DC0F3160036
:1004F00040F400007F2901DA00207047962903DCD0
:10050000C1F19601C84001E096398840002AF4D034
:100510004042704720F00040C10DC0F3160040F487
:1005200000007F2901DA00207047962903DCC1F121
:100530009601C840704796398840704770B5C1F33E
:100540000A5201F000450024C1F3130140F2FF33C9
:1005500041F480119A4201DA002070BD40F2334329
:100560009A42A2F2334203DC5242FFF701FE00E05E
:1005700090402C43F1D0404270BDC1F30A5210B5F7
:10058000C1F3130140F2FF3341F480119A4201DAC2
:10059000002010BD40F233439A42A2F2334203DC02
:1005A0005242FFF7E5FD10BD904010BD00F0004243
:1005B00030F000400AD0C10D01F56071C0F31600A3
:1005C00042EA0151C208400711437047002001462A
:1005D000704701F0004330B421F0004150EA0102BD
:1005E00006D00A0DA2F56072C1F31301002A02DCE5
:1005F00030BC00207047440F44EAC104C100E01839
:1006000030BC00EBC25000F031B82DE9F05F054678
:10061000002092469B4688460646814640241BE0C1
:100620002846414647462246FFF7A2FD53465A4612
:10063000C01A914110D311461846224600F0BCF86A
:100640002D1A67EB01084F4622460120002100F0D9
:10065000B3F817EB00094E41201EA4F10104DFDCC2
:10066000484631462A464346BDE8F09F0029A8BFC8
:100670007047401C490008BF20F00100704710B4CB
:10068000B0FA80FC00FA0CF050EA010404BF10BC80
:10069000704749B1CCF1200421FA04F411FA0CF1AD
:1006A00018BF012121430843A3EB0C01CB1D4FEAE6
:1006B00000614FEA102042BF002010BC704700EBE1
:1006C000C35010440029A4BF10BC7047401C49000F
:1006D00008BF20F0010010BC704710B5141E73F164
:1006E000000408DA401C41F1000192185B411A43F2
:1006F00001D120F0010010BD2DE9F04D92469B463E
:1007000011B1B1FA81F202E0B0FA80F220329046E3
:1007100000F052F804460F4640EA0A0041EA0B0195
:1007200053465A46084313D0114653EA010019D0E4
:10073000C8F140025046FFF71BFD05460E465046E5
:100740005946424600F038F8084305D0012004E03D
:1007500020463946BDE8F08D0020054346EAE076A4
:100760002C4337430A986305E40AA0EB08000022F3
:10077000FD0A44EA47540A3002D500200146E9E761
:10078000010510196941DDE9084500196941BDE815
:10079000F04DA2E7064C074D06E0E06840F001038B
:1007A00094E8070098471034AC42F6D3FFF7C4FC36
:1007B0003C5300085C530008202A04DB203A00FA6E
:1007C00002F1002070479140C2F1200320FA03F3A8
:1007D000194390407047000070B504460068816876
:1007E000C943C90717D1816821F00101816000F078
:1007F000C3FF05460AE000BF00F0BEFF401B022811
:1008000004D920688068C043C00706D0206880688B
:10081000C043C007F0D0002070BDA06A40F01000B7
:10082000A062E06A40F00100E062012070BD10B5F6
:100830000146406A826A12F0500F05D0006A026BCE
:10084000BDE8104008461047816A41F4007181629A
:1008500001688968C1F3424107290CD1017B51B974
:10086000816A21F480718162816AC90403D4816A3A
:1008700041F00101816200F079FA10BD10B5406AC3
:10088000816A41F040018162C16A41F00401C162A4
:1008900000F06EFA10BD10B5406A00F068FA10BDA5
:1008A000F8B500260446009600688168C943C90768
:1008B0002DD0816841F00101816016481649006819
:1008C000B0FBF1F000E0401E00900028FBD100F0EA
:1008D00053FF054616E000BF00F04EFF401B022804
:1008E00010D920688068C043C0070BD0A06A40F0D0
:1008F0001000A062E06A40F00100E06284F8246029
:100900000120F8BD20688068C043C007E4D1002002
:10091000F8BD00000C00002040420F002DE9F05F00
:100920002B4FB888FFF7D0FDDFF8A8B02A4B5A4606
:10093000FFF7CAFCFFF721FE80B2284CA0F6611138
:10094000C729208501D3E06A05E02549B1FBF0F015
:10095000FFF7A4FDE062FFF729FE8A4605465646EA
:10096000B8463888FFF7B0FD1E4A1F4BFFF7ACFCB6
:1009700033462A46FFF7A8FCDFF8709000224B466A
:10098000FFF714FDFFF7F9FD86B226845746B8F845
:100990000200FFF799FD5A46154BFFF795FC2A46D2
:1009A0003B46FFF791FC00224B46FFF7FFFCFFF7A9
:1009B000E4FD81B2618406FB01F0FFF774FD0022C3
:1009C0004B46FFF7F3FCFFF704FE6062BDE8F09FC3
:1009D000200000200F0BB5A679C7E93F5004002086
:1009E000A02526005EBA490C022BFB3F00408F4039
:1009F00079C7D93F7CB50026344600962546019636
:100A000003226946164800F09DFA012000F0A0FD7F
:100A1000BDF80000BDF80210204460F30F0401EBA4
:100A2000144060F31F44BDF80400761C2844F6B25D
:100A300060F30F050A2EE3D3A1B20A20B1FBF0F256
:100A400008490A80220CB2FBF0F2B5FBF0F04A80B4
:100A50008880012000F07CFD014800F0F9FA7CBD9F
:100A60003000002020000020FEE7000013490A2883
:100A700022D2DFE800F005070A0D101316181B1E1E
:100A80000F4818E00E482D3015E00D485A3012E09E
:100A90000B4887300FE00A48B4300CE00848E130DA
:100AA00009E0084807E007482D3004E005485A30BF
:100AB00001E0044887300860704700001000002003
:100AC000F0500008FE510008014800F0A7BB0000EC
:100AD00060000020014800F0A1BB0000FC000020E5
:100AE000014800F09BBB0000C8030020014800F053
:100AF00095BB00000C04002030B590F84050012454
:100B0000AC40C56B6C60046863604368102B03687D
:100B100003D099600068C26030BD9A600068C1600F
:100B200030BD704710B50021164801F039FE042190
:100B3000144801F035FE0021134801F031FE042174
:100B4000114801F02DFE0021104801F029FE04217A
:100B50000E4801F025FE00210D4801F021FE042180
:100B60000B4801F01DFE074900200968486206494C
:100B70000968486205490968486205490968486288
:100B800010BD000088010020D0010020600200207C
:100B9000F002002072B6FEE7F8B500250446009585
:100BA00090F8240001280BD0012084F8240020466E
:100BB000FFF712FE2046FFF773FE060002D050E05A
:100BC0000220F8BDA06A20F4885040F00200A06224
:100BD000022000F06FFE25490968B1FBF0F04000EB
:100BE00000E0401E00900028FBD12068816841F0A1
:100BF0000801816000F0C0FD074608E000F0BCFD80
:100C0000C01B0A2803D920688068000715D4206813
:100C100080680007F2D42068816841F00401816097
:100C200000F0AAFD074612E000F0A6FDC01B0A284E
:100C30000DD920688068400709D5A06A20F002001D
:100C400040F01000A06284F824500120F8BD206814
:100C500080684007E8D4A06A20F0020040F001005C
:100C6000A06284F824503046F8BD00000C0000203B
:100C7000F8B50024009490F824202546012A12D0CB
:100C8000012280F824204A681F23072A0DD2066813
:100C9000776B521E02EB820293409F430B68934096
:100CA0001F43776319E00220F8BD06680D2A0AD2B7
:100CB000376BD21F02EB820293409F430B68934035
:100CC0001F43376309E0F76A0D3A02EB8202934053
:100CD0009F430B6893401F43F7620A680723066827
:100CE0000A2A0AD3F7680A3A02EB420293409F436A
:100CF0008B6893401F43F76008E0376902EB4202BC
:100D000093409F438B6893401F4337610A68102AC2
:100D100001D0112A20D1124B02689A4217D1936850
:100D20001B0219D4936843F40003936009681029E7
:100D300012D10C490C4A0968B1FBF2F101EB8101B7
:100D4000490000E0491E00910029FBD104E0816ABE
:100D500041F020018162012480F824502046F8BD32
:100D6000002401400C00002040420F0070477047F3
:100D7000704700002DE9F04104004FF000057FD0DE
:100D8000A06A002628B9E66284F82460204600F0B4
:100D900081F82046FFF720FDA16AC90600D420B1E2
:100DA000A06A40F01000A0626AE0A16A21F48851B4
:100DB00041F00201A162334923688B42E16904D109
:100DC000B1F5402F01D14FF40021277B4FF4807CF7
:100DD00041EA470261680A43A168614508D00129D8
:100DE00006D0002194F814E0BEF1010F02D00AE011
:100DF0006146F7E7C7B1A76A47F02007A762E76A2D
:100E000047F00107E7625F6827F469470F435F60B7
:100E1000236899681C4F394011439960A168614566
:100E20000BD0012909D00CE0DFF860E0A7690EEBD8
:100E300047370F4347F40061E5E7218A0D05A5F523
:100E400080152168CB6A23F470032B43CB622168A1
:100E500089680F4B1940914208D1E662A16A21F0DE
:100E6000020141F00101A162BDE8F081A06A20F019
:100E7000020040F01000A062E06A40F00100E06271
:100E80000120F1E7003C0140FDF7E1FF00E0FFFF3A
:100E9000FE0E1FFF70B586B0002506460095019531
:100EA000029503950068214988423DD1204988690F
:100EB00040F400708861886900F4007004908869CB
:100EC00040F004008861886900F00400049088699B
:100ED00040F0100088618869032400F0100004903D
:100EE0003020CDE900046946124800F043FB102091
:100EF000CDE900046946104800F03CFB104C0F4857
:100F0000C4E900058020C4E902504000206180004F
:100F1000C4E905058000E061204600F0A3FA08B1AD
:100F2000FFF738FE3462666206B070BD00240140EF
:100F3000001002400008014000100140080002407B
:100F4000600000202DE9F047894604463B490068CF
:100F50003B4F0E1D9046884201D0B84207D1306801
:100F600010F4702F03D001252846BDE8F08794F8CF
:100F7000240001280CD0012084F824002046FFF72B
:100F80008FFC05004FF0000004D084F82400EBE74C
:100F90000220EAE7A16A40F60162914341F48071C0
:100FA000A1622168B94218D1326812F4702F14D0AE
:100FB000A16A41F48011A1623168490505D5A16A91
:100FC00021F4005141F48051A162A16AC9040AD5FB
:100FD000E16A21F00601E16206E0A26A22F48012D1
:100FE000A2624968E9E7E06284F82400216A1548B2
:100FF0008862216A1448C862216A1448086321681B
:101000006FF0020008602068816841F4807181609F
:10101000216843464A464C31206A00F061FA206854
:101020008168C1F342410729816803D041F48011EE
:10103000816099E741F4A001FAE700000024014033
:10104000002801402F080008970800087D080008C4
:1010500010B5044690F82400012807D0012084F838
:1010600024002046FFF7B8FB10B113E0022010BDAA
:1010700021688A6822F480728A60216A91F82120AE
:10108000022A07D1084600F00EF8A16A30B141F0FB
:101090004001A162002184F8241010BD21F4885180
:1010A00041F00101F5E710B590F821100022022966
:1010B00005D00421816380F82020012010BD016843
:1010C0000B6823F00E030B6001680B6823F001032B
:1010D0000B6090F84030C46B012101FA03F36360A8
:1010E00080F8211080F82020104610BD2DE9F05F17
:1010F00090F821100024022903D0042181630124E7
:1011000085E001680A6822F00E020A6001680A6838
:1011100022F001020A603F4E3E4FB215DFF8F4C0E4
:10112000DFF8F090DFF8ECA0DFF8E8B0DFF8E4E0FB
:101130000168783F13011502ACF1640CA9F1500964
:10114000AAF13C0AABF1280BAEF1140E4FF4801853
:10115000B14227D9B9420ED0614512D049451DD0C0
:10116000514518D0594518D0714501D1424615E076
:10117000294EB14201D1012210E0274E1436B1426E
:1011800001D110220AE0244E2836B14206D0224A6C
:101190003C32914201D11A4600E02A461E49091FFD
:1011A0000A602BE0B94213D0614517D0494522D0DF
:1011B00051451DD059451DD0714501D142461AE017
:1011C000B14202D14FF0807215E0134EB14201D10D
:1011D000012210E0104E1436B14201D110220AE073
:1011E0000D4E2836B14206D00B4A3C32914201D115
:1011F0001A4600E02A46074980394A60012180F8F2
:101200002110002180F82010416B01B18847204651
:10121000BDE8F09F80000240080402402DE9F05F25
:10122000C16B0A6801680B68046C4FF0040808FA87
:1012300004F8844D844E854FDFF814C2DFF8149211
:10124000DFF814A2DFF814B2DFF814E218EA020F94
:1012500065D05FEA437862D50A68920603D40A68CB
:1012600022F004020A60DFF8F0814FF48062016826
:1012700008F1140813011402414524D9A9420DD0E4
:10128000B1420FD0B9421AD0614515D0494515D0A9
:10129000514501D1120312E0594501D104220EE05B
:1012A000714501D140220AE06D4D1435A94206D0A6
:1012B0006B4A2832914201D11A4600E02246674922
:1012C000091F0A6029E0A94213D0B14215D0B942E2
:1012D00020D061451BD049451BD0514502D14FF468
:1012E000800217E0414502D14FF0806212E059457B
:1012F00001D104220EE0714501D140220AE0584D8F
:101300001435A94206D0564A2832914201D11A46D4
:1013100000E022464B4908394A60C16A71E04FF04B
:10132000020808FA04F818EA020F70D05FEA83781E
:101330006DD50A68920606D40A6822F00A020A608D
:10134000012180F82110DFF810814FF4007201684C
:1013500008F1140813011402414524D9A9420DD003
:10136000B1420FD0B9421AD0614515D0494515D0C8
:10137000514501D1120312E0594501D102220EE07C
:10138000714501D120220AE0354D1435A94206D01D
:10139000334A2832914201D11A4600E022462F49B1
:1013A000091F0A6029E0A94213D0B14215D0B94201
:1013B00020D061451BD049451BD0514502D14FF487
:1013C000001217E0414502D14FF0007212E059457A
:1013D00001D102220EE0714501D120220AE0204D08
:1013E0001435A94206D01E4A2832914201D11A462C
:1013F00000E02246134908394A60002180F8201095
:10140000816A00291CD0BDE8F05F0847FFE7082586
:10141000A540154214D01A0712D50A6822F00E0210
:101420000A6090F84020C36B012101FA02F25A6071
:10143000816380F82110002180F82010016BE0E723
:10144000BDE8F09F080002401C000240300002404E
:1014500044000240580002406C0002400804024070
:101460001C04024030B560B11A4B026814219A4244
:1014700009D2194B1344B3FBF1F1890001641749F8
:101480000AE0012030BD134B5B421344B3FBF1F182
:10149000890001640F490839C163022180F82110D5
:1014A000136843F6F0718B43F0E901142143D0E94E
:1014B00002452C4321430469214344692143846943
:1014C00021431943116000214163012242770177D2
:1014D000084630BD08040240F8FFFDBF000002408E
:1014E00070B5044690F82000002501280CD001209A
:1014F00084F8200094F821600020012E06D084F8A2
:1015000020000225284670BD022070BD022684F806
:101510002160A0632068066826F001060660204668
:10152000FFF7EAFAE06A00282068016802D041F07B
:101530000E0106E021F0040101602068016841F01D
:101540000A0101602068016841F001010160D9E7EA
:1015500070B5044600F010F90546601C02D004483E
:101560000078044400F008F9401BA042FAD370BD93
:10157000000000202DE9F84FDFF8C8910024A9F100
:10158000040B23460F2709F1040AABF1040ED1E046
:101590000125A54006EA0502AA4276D1DFF8A8C1D6
:1015A0004E68A6EB0C0866452BD00DDC032E34D01C
:1015B00005DC36B3012E19D0022E2FD11BE0112EDF
:1015C00016D0122E2AD119E0B8F5881F19D006DCE2
:1015D000B8F5803F15D0B8F5801F1FD111E0B8F5E0
:1015E000001F0ED0B8F5041F18D10AE0CB6815E033
:1015F000CB681B1D12E0CB6808330FE0CB680C33BF
:101600000CE08B682BB1012B4FF0080303D0456130
:1016100004E0042302E0056100E00023FF2A01D872
:10162000064601E000F104064FEA840501D9A5F160
:101630002005D6F8008007FA05FC28EA0C0803FA12
:1016400005F548EA0508C6F800804D68ED0070D53C
:101650003E4DAE6946F00106AE61AD6924F0030669
:1016600005F0010500953A4D06EB050CDCF8085035
:10167000A607360F07FA06F825EA0805DFF8D48032
:10168000404503D14FF0000825E052E0DFF8C88064
:10169000404502D14FF001081DE0DFF8C080404511
:1016A00002D14FF0020816E0DFF8B480404502D1C5
:1016B0004FF003080FE0DFF8AC80404502D14FF057
:1016C000040808E0DFF8A080404502D14FF005088B
:1016D00001E04FF0060808FA06F848EA0508CCF8D9
:1016E00008804D68D9F80060ED024D4601D51643DB
:1016F00000E096432E604D68DAF80060AD02554672
:1017000001D5164300E096432E604D68DBF800607B
:10171000AD035D4601D5164300E096432E604D684B
:10172000DEF80060ED03754601D5164300E09643F0
:101730002E60641C0A681646E2407FF429AFBDE8BB
:10174000F88F000008040140000011100010024052
:101750000000014000080140000C01400010014061
:101760000014014000180140001C01400AB1016151
:1017700070470904FBE700000148806870470000DB
:10178000000000200248816802781144816070479F
:1017900000000020074810B5016841F01001016009
:1017A000032000F075F80F2000F006F800F024F890
:1017B000002010BD0020024070B50D4D04464FF4CE
:1017C0007A712878B1FBF0F00A490968B1FBF0F0B2
:1017D00000F0FFFD48B9102C07D200222146501E10
:1017E00000F036F800206C6070BD012070BD000074
:1017F000000000200C0000200C4808B5816941F071
:1018000001018161816901F001010091C16941F02B
:101810008051C161C06900F0805000900448416867
:1018200021F0E06141F00071416008BD001002400C
:1018300000000140002809DB00F01F020121914057
:101840004009800000F1E020C0F80011704700005E
:10185000F0B40E4B1B680C46C3F30223C3F107051B
:10186000042D00D90425191D072901D2002300E009
:10187000DB1E012606FA05F1491E214099409E40D3
:10188000761E16403143F0BC03F08EB80CED00E03C
:10189000064900F0070208684FF6FF03184040EAC7
:1018A0000220034A10430860704700000CED00E07E
:1018B0000000FA0510B501460020284C04292FD05D
:1018C0000BDC012930D0022929D100F06BF96168C5
:1018D000C1F38131491C49001FE0082920D010299B
:1018E0001DD161682268D20119D51D48C1F3834218
:1018F000C903805C0AD56168194AC1F34041921E50
:10190000515C184AB2FBF1F1484301E016494843E3
:101910006168490203D440000321B0FBF1F010BD1F
:10192000BDE8104000F04EB9226AC2F3012101293E
:1019300003D1920701D5C80310BD022905D1626AFF
:10194000920702D549F6404010BD0329FCD1216819
:101950008903F9D54FF2244010BD00000010024069
:10196000C850000800127A0000093D002DE9F84334
:1019700005460078354CC00754D0E0690026C00009
:1019800008D4E06940F08050E061E069012600F091
:10199000805000902E480168C90512D40168804625
:1019A00041F480710160FFF7E7FE074605E000BFE4
:1019B000FFF7E2FEC01B642823D8D8F80000C0055A
:1019C000F6D5206A10F4407021D0A98801F4407146
:1019D00081421CD0206A1F49012220F440700A6015
:1019E00000220A602062C00711D0FFF7C5FE07463B
:1019F00041F2883808E000BFFFF7BEFEC11B414539
:101A000002D90320BDE8F883206A8007F4D5206A54
:101A1000696820F44070084320621EB1E06920F03C
:101A20008050E0612878800705D56068A96820F4B7
:101A30004040084360602878C00605D56068696941
:101A400020F48000084360600020DBE700100240C3
:101A500000700040400442422DE9F0470F46050067
:101A600061D0434E306800F00700B84209D23068B8
:101A700020F0070038433060306800F00700B842BB
:101A800051D128683B4C810712D5400703D56068C7
:101A900040F4E06060602878000703D5606840F497
:101AA000605060606068A96820F0F00008436060E2
:101AB0002878C00728D06868012810D0216802283B
:101AC00010D0890700292EDA616821F00301014353
:101AD0006160FFF751FE804641F288390DE02168D0
:101AE0008903EFE78901EDE7FFF746FEA0EB080168
:101AF000494502D90320BDE8F0876068696800F0B5
:101B00000C00B0EB810FEFD1306800F00700B84255
:101B10000BD9306820F0070038433060306800F09F
:101B20000700B84201D00120E5E72878400705D535
:101B30006068E96820F4E060084360602878000786
:101B400006D56068296920F4605040EAC1006060F1
:101B500000F038F86168084AC1F30311515CC840CD
:101B60000649086006480068FFF726FE0020C2E725
:101B70000020024000100240D85000080C00002055
:101B8000040000200448054900684968044AC1F37C
:101B90000221515CC84070470C0000200010024038
:101BA000E85000080448054900684968044AC1F340
:101BB000C221515CC84070470C0000200010024058
:101BC000E85000080E4A51680E4801F00C03042B3F
:101BD00011D0082B0FD10C48C1F38343C903C05C5B
:101BE0000AD55168084AC1F34041921E515C054A2A
:101BF0005043B0FBF1F07047044948437047000080
:101C00000010024000127A00B650000800093D00A2
:101C10002DE9F84F040070D02078C04DC00749D09E
:101C20006868C0F38100012807D06868C0F38100AC
:101C3000022809D16868C00306D52868800339D511
:101C400060680028E7D035E06068B0F5803F0BD0D1
:101C500010B1B0F5A02F11D0286820F48030286092
:101C6000286820F4802002E0286840F48030286052
:101C7000606890B1FFF780FD06460AE0286840F4EE
:101C800080202860F0E700BFFFF776FD801B642806
:101C900073D828688003F7D50CE0FFF76DFD064682
:101CA00005E000BFFFF768FD801B6428F0D82868B6
:101CB0008003F7D420789A4E80074FF001094FF047
:101CC000000839D5686810F00C0F07D06868C0F3B9
:101CD0008100022809D16868C00306D428688007FB
:101CE00014D52069012808D110E02069B0B1C6F8E8
:101CF0000090FFF741FD074605E00AE1FFF73CFDD4
:101D0000C01B0228C4D828688007F7D528686169F5
:101D100020F0F80040EAC10028600DE0C6F800801D
:101D2000FFF72AFD074604E0FFF726FDC01B022847
:101D300023D828688007F7D4207800072CD5794865
:101D4000A169D9B1C0F80090FFF716FD074604E07D
:101D5000FFF712FDC01B02280FD8686A8007F7D56D
:101D600071484FF4FA510068B0FBF1F0009000BFE9
:101D70000098411E0091FAD20EE080E0C0F8008089
:101D8000FFF7FAFC074604E0FFF7F6FCC01B022849
:101D900075D8686A8007F7D42078400760D5E8696D
:101DA0000027C00008D4E86940F08050E861E86985
:101DB000012700F0805000905C480168C90513D4E9
:101DC0000168834641F480710160FFF7D5FC8246CB
:101DD00006E000BFFFF7D0FCA0EB0A0064284ED855
:101DE000DBF80000C005F5D5E06801280AD008B18D
:101DF000052813D0286A20F001002862286A20F004
:101E0000040002E0286A40F001002862E06841F224
:101E1000883B98B1FFF7B0FC82460BE0286A40F09F
:101E200004002862EEE700BFFFF7A6FCA0EB0A0162
:101E300059455AD8286A8007F6D50CE0FFF79CFC74
:101E4000824605E0FFF798FCA0EB0A0159454CD803
:101E5000286A8007F6D41FB1E86920F08050E86155
:101E6000E06988B36968C1F38101022944D002287E
:101E7000C6F8608004D0FFF77FFC044638E034E009
:101E8000FFF77AFC074604E0FFF776FCC01B022848
:101E90002BD828688001F7D4206AB0F5803F05D19F
:101EA0006868A16820F4003008436860D4E908013C
:101EB0000843696821F4741108436860C6F86090AB
:101EC000FFF75AFC044606E025E000BFFFF754FC8C
:101ED000001B022809D828688001F7D51BE000BF45
:101EE000FFF74AFC001B022802D90320BDE8F88F47
:101EF00028688001F4D40EE00128F7D06868226ACF
:101F000000F48031914204D1616A00F4701088427B
:101F100001D00120EAE70020E8E7000000100240BD
:101F200000004242800442420C0000200070004049
:101F30007047000038B50446006842688168C943AC
:101F40004B0606D5CB0704D1D3435B0601D4216CE5
:101F500005E08B0708D4D3431B0605D4616C01B0A0
:101F60002046BDE8304008478B0601D54B0646D4D5
:101F7000D3439B0643D44B060AD494F85130032B29
:101F80003ED0636D43F004036365C36883680093C8
:101F9000890609D4616D41F0010161658168009194
:101FA000016821F040010160606D002827D02068A1
:101FB000416821F0E0014160012084F85100900760
:101FC00022D02068416821F003014160104DE06C8F
:101FD00040B14563E06CFFF789F818B1606D40F0DF
:101FE00040006065A06C002809D04563A06CFFF735
:101FF0007DF8002803D0606D40F04000606538BD7A
:10200000C1688068009038BD2046FFF791FF38BD59
:102010005941000870B5040009D0606A002540B13C
:1020200025616561A56294F8510040B10CE0012082
:1020300070BD6068B0F5827FF4D0E561F2E784F8A6
:102040005050204600F040F8022084F851002068EB
:10205000016821F040010160A088218900F48270AC
:1020600001F404410843A18901F400610843217C83
:1020700001F002010843217D01F001010843218B99
:1020800001F400710843217F01F03801084394F8FE
:10209000201001F080010843218D01F40051084314
:1020A00021680860A069042101EA104021684860A5
:1020B0002068C16921F40061C1616565012084F86F
:1020C0005100002070BD000070B586B000250646A6
:1020D000009501950295039500681F49884238D103
:1020E0001E49C86940F48040C861C86900F4804056
:1020F0000490886940F0080088618869694600F0AA
:10210000080004904FF4204000900220019003202A
:1021100003901348FFF72EFA134C1248206010204A
:10212000C4E901058020C4E9030580016561C4E9B3
:1021300006502046FFF796F908B1FEF72BFDB46470
:102140000022072124206662FFF782FB2420FFF78C
:1021500071FB06B070BD0000003800400010024066
:10216000000C014058000240FC0000202DE9F84F0F
:10217000984616468A460446FFF7FEFA814694F8CA
:10218000510001281ED1BAF1000F73D0002E71D07A
:1021900094F85000012815D0012784F850700320CE
:1021A00084F8510000256565C4F830A0A686E6864F
:1021B000A563A587E58765642564A068B0F5004F31
:1021C00003D00CE00220BDE8F88F2068016821F000
:1021D000400101602068016841F48041016020688D
:1021E0000168490603D4016841F040010160E068DC
:1021F000B0F5006F606803D048B3012E27D047E0E8
:1022000008B1012E1FD1206B21680088C86006E04C
:1022100020688168890709D5216B0988C160206B16
:10222000801C2063E08E401EE0860CE0FFF7A4FADD
:10223000A0EB0901414503D3B8F1FF3F03D035E0DE
:10224000B8F1000F32D0E08E0028E1D123E0206BFE
:1022500021680078087306E02068816889070AD53C
:10226000216B09780173206B401C2063E08E401EB7
:10227000E0860DE02BE0FFF77FFAA0EB0901414576
:1022800003D3B8F1FF3F03D010E0B8F1000F0DD039
:10229000E08E0028E0D14A464146204601F0ACFFDE
:1022A00008B120206065A06830B109E084F8517061
:1022B00084F85050032086E72068C1688068009049
:1022C00084F8517004F8505F60680028F3D0012052
:1022D00079E7000070B5044690F8510001281CD140
:1022E000C9B1C2B194F85000012816D0012084F879
:1022F0005000032084F85100002565652163A28603
:10230000E286A56365642564A587E587A068B0F5C6
:10231000004F04D00DE0012070BD022070BD206888
:10232000016821F0400101602068016841F48041AA
:102330000160A16C1748C862A16C17488862A16C43
:1023400016480863A06C4563E38E2268216B0C324B
:10235000A06CFFF7C5F830B1606D40F0100060650B
:1023600084F85050D7E720680168490603D4016813
:1023700041F04001016084F850502068416841F00C
:10238000200141602068416841F002014160002065
:1023900070BD00008B4100089541000869410008AC
:1023A00008484188491C89B241800288914205D27F
:1023B0008088054982B20548FFF78CBF0021018063
:1023C000418070471800002080040020A4000020F5
:1023D000704710B5401EB0F1807F01D3012010BDC1
:1023E0004FF0E02460610F21601702F0DDFA002059
:1023F000A06107202061002010BD7047704710B514
:1024000090F83C20012A22D0012280F83C20CA68A2
:102410008C6822F4407222434C6822F4806222438A
:102420000C6822F4006222430C6922F48052224399
:102430004C6922F400522243C969002322F48042ED
:102440000A4301684A6480F83C30002010BD022035
:1024500010BD000070B590F83C20012A2CD001245A
:1024600080F83C40022280F83D2003685A689D684D
:1024700022F070060A6832435A60104B02689A4292
:102480000ED00F4B9A420BD0B2F1804F08D00D4BBB
:102490009A4205D00C4B9A4202D00C4B9A4204D17E
:1024A000496825F080031943916080F83D40002180
:1024B00080F83C10084670BD022070BD002C014021
:1024C000003401400004004000080040000C0040BF
:1024D00010B5040003D094F83D0010B107E00120CE
:1024E00010BD002084F83C00204600F01FF80220B8
:1024F00084F83D00211D206801F03CFF012084F894
:10250000460084F83E0084F83F0084F8400084F8D8
:10251000410084F8420084F8430084F8440084F8C1
:10252000450084F83D00002010BD000008B500689B
:102530000B49884212D10B48C16941F02001C161A9
:10254000C069002200F0200000900A213720FFF728
:102550007FF9BDE808403720FFF76CB908BD0000DF
:10256000001400400010024090F83D10012901D0F5
:1025700001207047022180F83D100168CA6842F0CE
:102580000102CA6000680E4988420ED00D49884297
:102590000BD0B0F1804F08D00B49884205D00B49D1
:1025A000884202D00A49884204D1816801F00701BB
:1025B000062903D0016841F0010101600020704745
:1025C000002C01400034014000040040000800409D
:1025D000000C00402DE9F0410D46040003D094F8B2
:1025E0003D0018B108E00120BDE8F081002084F82A
:1025F0003C00204600F040F8022084F83D002068AE
:10260000816844F2070291438160211D206801F036
:10261000B1FE226890689169166A2B68AF6903431E
:1026200040F20330814341EA0721A868EF6908437B
:102630004FF6FC418843E96840EA072001432869D6
:102640002F6A000140EA0730084369686D6926F087
:10265000220646EA0515294393602268906154F8E2
:10266000460B0162012004F81F09E0752076E07630
:102670002077A0750020B7E710B586B0002400943D
:1026800001940294039402683D493E48B2F1804FA0
:1026900015D03D4CC023A24242D1CA6942F0020289
:1026A000CA61CA6902F0020204928A6942F0040215
:1026B0008A618969009301F00401049145E0CA69C7
:1026C00042F00102CA61CA6902F0010204928A69F9
:1026D00042F004028A618A6902F0040204928A6963
:1026E00042F008028A61896901F0080104914FF4FF
:1026F000004100916946FEF73DFF0820CDE9000446
:10270000694622480294FEF735FF2148416821F4CA
:10271000407141F0E06141F48071416006B010BD4C
:102720001C4CA24215D1CA6942F00802CA61CA69AA
:1027300002F0080204928A6942F004028A618969FF
:1027400001F004010491032100916946FEF712FF94
:10275000E4E711488242E1D1886940F40050886181
:10276000886900F400500490886940F01000886186
:102770008869694600F01000049000930748E5E777
:10278000001002400008014000040040000C01401D
:1027900000000140000C00400034014000100140E6
:1027A00070B590F83E60044690F83F5090F8423083
:1027B00090F84320022021B104290ED0012E1BD114
:1027C00014E0012E18D1012B16D184F83E0084F8B4
:1027D000420001220021206820E0012D0CD1012AB5
:1027E0000AD184F83F0084F8430014E0012D03D19E
:1027F000012B01D1012A01D0012070BD84F83E00D7
:1028000084F83F0084F8420084F84300012200214C
:10281000206801F0FDFD01220421206801F0F8FD8F
:102820002068016841F001010160002070BD70471F
:102830002DE9F04104460068C66805694FF00007BD
:10284000A90713D5B10711D5F91E01610120207721
:10285000206880698007204602D0FFF7E8FF04E087
:1028600000F0BCF8204600F06DF92777680716D510
:10287000700714D521686FF00400086102202077EA
:102880002068806910F4407F204602D0FFF7CFFF18
:1028900004E000F0A3F8204600F054F92777280759
:1028A00015D5300713D521686FF0080008610420A2
:1028B00020772068C0698007204602D0FFF7B7FF65
:1028C00004E000F08BF8204600F03CF92777E8069A
:1028D00016D5F00614D521686FF0100008610820A5
:1028E00020772068C06910F4407F204602D0FFF7AF
:1028F0009EFF04E000F072F8204600F023F92777ED
:10290000E80708D0F00706D021686FF001000861E1
:10291000204600F073F9280608D5300606D5216850
:102920006FF0800008612046FFF767FD680608D554
:10293000700606D521686FF040000861204600F05F
:10294000F9F9A8060AD5B00608D521686FF020006D
:1029500008612046BDE8F041FFF750BDBDE8F081B9
:1029600000B585B000210091019102910391164BB1
:102970000268164802219A420FD1826942F004028D
:1029800082618069039100F0040004904FF41060AC
:10299000CDE9000169460E4811E00E4B9A4210D174
:1029A000826942F0080282618069039100F00800A8
:1029B00004904FF47070CDE9000169460648FEF7B7
:1029C000D9FD05B000BD0000002C01400010024000
:1029D0000008014000080040000C0140704770B53D
:1029E000044690F83C0000260D4601280FD0012037
:1029F00084F83C006AB1042A1DD0082A2FD00C2A82
:102A00003FD00126002084F83C00304670BD0220F3
:102A100070BD206801F00AFD2068816941F008015D
:102A200081612068816921F00401816120688169E8
:102A30002A69114311E0206801F028FD20688169AE
:102A400041F4006181612068816921F480618161C4
:102A5000206881692A6941EA02218161D2E7206800
:102A600001F04AFD2068C16941F00801C161206898
:102A7000C16921F00401C1612068C1692A6911435B
:102A800011E0206801F06CFD2068C16941F400612B
:102A9000C1612068C16921F48061C1612068C16998
:102AA0002A6941EA0221C161ACE710B5040003D0F4
:102AB00094F83D0010B107E0012010BD002084F81B
:102AC0003C00204600F01EF8022084F83D00211D45
:102AD000206801F04FFC012084F8460084F83E0095
:102AE00084F83F0084F8400084F8410084F84200F4
:102AF00084F8430084F8440084F8450084F83D00DD
:102B0000002010BD08B50C4A01680C48914207D15D
:102B1000816941F400618161806900F4006009E02D
:102B2000074A914207D1C16941F00401C161C069FE
:102B300000F00400009008BD002C0140001002408D
:102B4000000800407047000010B50446022249B159
:102B500004290ED0082913D094F84100012816D07A
:102B6000012010BD94F83E000128F9D184F83E20E0
:102B70000FE094F83F000128F2D184F83F2008E0EC
:102B800094F840000128EBD184F8402001E084F85B
:102B900041200122206801F03BFC13492068134AC0
:102BA000884201D0904203D1436C43F40043436414
:102BB000206888420DD090420BD0B0F1804F08D0F1
:102BC0000B49884205D00B49884202D00A49884205
:102BD00004D1816801F00701062903D0016841F0A2
:102BE00001010160002010BD002C014000340140B3
:102BF0000004004000080040000C00402DE9F047B0
:102C0000434988427DD1434C2088401C80B20A2130
:102C1000B0FBF1F2208001FB120008B901206080B6
:102C20003D480268506A3D4960600868406A3C4B14
:102C3000A0601868406AE06100205062096848623C
:102C40001968486260684FF40041884203DDA0F5CE
:102C50007F40FF386060A068884203DDA0F57F40B8
:102C6000FF38A0604542A560E069884203DDA0F519
:102C70007F40FF38E0616069DFF8A8802A4E2B4F63
:102C8000B0F100090CDDA06900281BDA6068FDF7CF
:102C90000AFC00224346FDF717FBFDF79AFC14E0FF
:102CA00010DAA06900280DDD6068FDF7EEFB7060AA
:102CB0006842FDF7F8FB00224346FDF705FBFDF7F0
:102CC00088FC06E06068FDF7E0FB70606842FDF795
:102CD000DCFB7860E0694042FDF7D7FB14494860AF
:102CE0006168E0680844E060206928442061A069C8
:102CF000FDF7CBFB04464846FDF7C7FB0022214603
:102D000000E003E0BDE8F04701F096B9BDE8F087C8
:102D1000A80200205004002088010020600200204A
:102D2000D00100200000E83F809A0020A49A0020F3
:102D3000C89A0020704738B5044690F84200202811
:102D400001D0022038BD51B14AB1012020630020DA
:102D50006063204601F0C4FD216B012901D00120F0
:102D600038BD21680A684968009121680C3151E832
:102D7000002F42F0100241E80023002BF5D138BDAE
:102D800070B500680F49884218D10F490F4C0120D7
:102D9000087020780E4D4FF00C0228B10D490E48F6
:102DA000FFF7C9FF0D4804E00C490B48FFF7C3FFCC
:102DB00008482860207810B10020207070BD0120E4
:102DC000FBE7000000440040260000202C0000200B
:102DD00028000020F89A002080030020EC9A0020B0
:102DE00010B500680A49884210D10A4C0C220A48E2
:102DF0002168FFF7A0FF09480068016821F004017D
:102E000001602068002101604160816010BD000008
:102E1000004400402800002080030020C803002058
:102E2000F8B5016804460868CA684B6910F00F0FCE
:102E30004FF0000559D003F0010602F490773743B4
:102E400065D0C10705D0D10503D5616C41F0010102
:102E50006164410705D5D90703D0616C41F00201D7
:102E60006164810705D5D90703D0616C41F0040185
:102E70006164010707D502F02001314303D0616C82
:102E800041F008016164616C00293AD0800604D5E4
:102E9000900602D5204601F065FC20684069616C0F
:102EA000C0F38010090700D460B3204601F025FC70
:102EB00020684069400621D52068143050E8001F82
:102EC00021F0400140E80012002AF5D1E06BA8B1E2
:102ED0006D494163E06BFEF709F9002811D0E06B02
:102EE000416B01B0BDE8F040084783060FD593065B
:102EF0000DD52046BDE8F84001F034BC2046FFF770
:102F00006FFFF8BD2046FFF76BFF6564F8BD266BC9
:102F10002023012E7CD1C6067AD5D60678D508683E
:102F20004868009048694FF00206400640D5E16BC2
:102F3000086840680004000CE8D0A28D8242E5D900
:102F4000E085886920282DD020680C3050E8001FCB
:102F500021F4807140E80012002AF5D12068143075
:102F600050E8001F21F0010140E80012002AF5D1CD
:102F70002068143050E8001F21F0400140E80012A2
:102F8000002AF5D184F84230256320680C3050E8DF
:102F9000001F21F0100140E80012002AF5D1E06B7B
:102FA000FEF781F86663A08DE18D401A81B22AE0B8
:102FB000A08DE18D401A81B2E08D0028A6D00029B5
:102FC000A4D022680C3252E8000F20F4907042E83E
:102FD0000007002FF5D12068143050E8002F22F0B0
:102FE000010240E80027002FF5D184F84230256324
:102FF00020680C3050E8002F22F0100240E8002337
:10300000002BF5D166632046FFF7BAFEF8BDFFE757
:1030100005062BD5150629D594F841002128F5D1B0
:10302000A068B0F5805F01D12069B0B1206A411C71
:103030002162216800784860E08C401E0004000C8A
:10304000E084E3D12068C16821F08001C16020687C
:10305000C16841F04001C160D8E7206A0088C0F330
:1030600008004860206A801C2062E5E74006CDD554
:103070005006CBD5CA68204622F04002CA6084F8C8
:10308000413000F007F9C1E7B145000870B5040010
:1030900004D094F84100002510B106E0012070BD75
:1030A00084F84050204600F023F8242084F84100A2
:1030B0002068C16821F40051C160204601F0B4FBD2
:1030C0002068016921F4904101612068416921F083
:1030D0002A0141612068C16841F40051C160656402
:1030E000202084F8410084F842006563002070BD10
:1030F000F0B585B000240094019402940394064630
:103100003F4F03683F48022103223F4DBB4221D17C
:10311000836943F480438361836903F480430493A8
:10312000836943F0040383618069039200F0040023
:1031300004900802CDE9000169462846FEF71AFA14
:103140002815CDE90004694628460294FEF712FAD4
:1031500005B0F0BD2D4FBB42FAD1C36943F4003333
:10316000C361C36903F400330493836943F0040328
:1031700083618069039200F0040004900420CDE98B
:10318000000169462846FEF7F5F90820CDE900045C
:103190000120029069462846FEF7ECF91D4D1C48B7
:1031A0008027C5E90004C5E9024720202C61C5E954
:1031B00005402846EC61FEF755F908B1FDF7EAFC39
:1031C000F5636E62134D12484435143001C510206A
:1031D00091C5104845F8104944306C61AC61EC6110
:1031E000FEF740F908B1FDF7D5FCB56300220621D2
:1031F00026206E62FEF72CFB2620FEF71BFBA7E7BE
:103200000038014000100240000801400044004026
:103210006C000240C80300207047704770B5044638
:1032200090F84100202801D0022070BD49B342B37C
:103230002162A284E28400206064212384F841306A
:10324000A56B114BAB62A56B104BEB62A56B104BE2
:103250002B63A36B5863256813462A1DA06BFEF7EA
:103260003FF921686FF0400008602068143050E892
:10327000001F41F0800140E80012002AF5D1002033
:1032800070BD012070BD0000AF460008F146000887
:10329000C145000870477047FEE72DE9F04104463C
:1032A0001D4616460F462A2000F01AFB204600F065
:1032B0000DFB304600F00AFB2B2000F011FB3846D6
:1032C00000F004FB284600F001FBBDE8F0412C2093
:1032D00000F006BB2DE9FF5F354981464FF4616080
:1032E000086000241A23BB2202217120FFF7D5FFBA
:1032F0000025DFF8C0B04FF00A0A44F630761827F0
:103300004FF00F08C4F10300C1B20A2001F061FEC2
:10331000B9FBF0F1B1FBFAF20AFB1210FDF7A6FBC4
:1033200034B1012C0ED0022C2DD0032C15D134E059
:10333000CDE90265CDE900874B2200210846DBF884
:10334000003008E0CDE90265CDE900874B2200217D
:103350001E20DBF8003000F0CDF8641CE4B2042C31
:10336000D0D3CDE90265CDE90087134B4B22002174
:103370000F2000F0BFF811490888401C0880BDE804
:10338000FF5F00F045B8CDE90265CDE900874B222B
:1033900000212D20DBF80030DDE7CDE90265CDE925
:1033A00000874B2200213C20DBF80030D3E70000EF
:1033B0001C00002010000020B2520008180000205D
:1033C00070B5114C05464FF420760021EF2340F2F2
:1033D0003F1208466660FFF760FF00210B482A0A8B
:1033E000EBB242544518891C89B26B70B142F8D3D4
:1033F00000252088401C208000F00AF86D1CADB22A
:10340000F02DF6D370BD00001800002080040020CD
:1034100010B5074C0749A08882B20748FEF75AFF4B
:103420002088002802D000F07DF9F9E710BD0000E7
:103430001800002080040020A40000202DE9F05F87
:103440008346DDF828908A4603FB09F04100DDE958
:103450000B7626480024264D41602EE0002128E00E
:103460005FF0000092F800C02CFA00FC5FEACC7C10
:103470000CD000EBC40C0CFB031C4FEA172805F81A
:103480001C8005EB4C0C8CF801700BE000EBC40CBD
:103490000CFB031C4FEA162805F81C8005EB4C0CAE
:1034A0008CF80160401CC0B20828DBD3491C89B2EB
:1034B000521C9942D4D3641CE4B2B4EBD90FCDD3DF
:1034C0000BEB03010AEB0900401E80B2491E8AB2D1
:1034D000034651465846FFF7E0FE04490888401C61
:1034E0000880BDE8F05FFFF793BF000018000020E0
:1034F000800400202DE9FF4F0024DDE90F9ADDE96B
:103500000DBE1D4D02FB01F631E000212BE0009FB6
:1035100000200F4493F800C02CFA00FC5FEACC7C3A
:103520000DD000EBC40C0CFB026CBC444FEA192814
:1035300005F81C8005EB4C0C8CF801900CE000EBBE
:10354000C40C0CFB026CBC444FEA1A2805F81C8022
:1035500005EB4C0C8CF801A0401CC0B20828D9D354
:10356000491C89B25B1C5945D1D3641CE4B2B4EB4D
:10357000DE0FCAD3BDE8FF8F8004002070B5684D10
:103580004FF48054002221462846FEF7EFF84FF40E
:10359000C870FDF7DDFF012221462846FEF7E6F858
:1035A000C820FDF7D5FF6420FDF7D2FF112000F001
:1035B00097F97820FDF7CCFF362000F091F97020C4
:1035C00000F01CFA3A2000F08BF9052000F016FA02
:1035D000B22000F085F90C2000F010FA0C2000F069
:1035E0000DFA002000F00AFA332000F007FA332029
:1035F00000F004FAB72000F073F9352000F0FEF96E
:10360000BB2000F06DF9192000F0F8F9C02000F09F
:1036100067F92C2000F0F2F9C22000F061F90120D6
:1036200000F0ECF9C32000F05BF9122000F0E6F99D
:10363000C42000F055F9202000F0E0F9C62000F089
:103640004FF90F2000F0DAF9D02000F049F9A4205A
:1036500000F0D4F9A12000F0D1F9E02000F040F909
:10366000D02000F0CBF9042000F0C8F90D2000F0C4
:10367000C5F9112000F0C2F9132000F0BFF92B208A
:1036800000F0BCF93F2000F0B9F9542000F0B6F981
:103690004C2000F0B3F9182000F0B0F90D2000F034
:1036A000ADF90B2000F0AAF91F2000F0A7F92320A4
:1036B00000F0A4F9E12000F013F9D02000F09EF909
:1036C000042000F09BF90C2000F098F9112000F084
:1036D00095F9132000F092F92C2000F08FF93F208B
:1036E00000F08CF9442000F089F9512000F086F9AF
:1036F0002F2000F083F91F2000F080F91F2000F038
:103700007DF9202000F07AF9232000F077F92020BD
:1037100000F0E6F8BDE87040292000F0E1B80000B4
:10372000000C01400020401CC0B20528FBD37047AC
:1037300070B50D4D002424B1012C06D0022C0ED101
:1037400007E0288C00F04CF809E0688CFFF7C2FD18
:1037500005E0686AFCF7DEFE80B200F0D7F8641C72
:10376000E4B20A2CE7D370BD500400202DE9FE4FCF
:10377000002426464FF6E077182544F630784FF4BB
:1037800078494FF4977A14B1012C20D103E000203E
:10379000FFF716FE1BE0CDE900570F230F4A022169
:1037A0004D200296FFF74AFE0C4ACDE900580F2340
:1037B0002D3A0221BB200296FFF740FECDE90059C9
:1037C0000F23064A022150460296FFF737FE641C7B
:1037D000E4B20A2CD7D3BDE8FE8F00000C530008DA
:1037E0002DE9FF5F354981464FF461600860002490
:1037F0001A234D2202210320FFF74FFD0025DFF899
:10380000C0B04FF00A0A4FF6E07618274FF00F08C5
:10381000C4F10300C1B20A2001F0DBFBB9FBF0F1F7
:10382000B1FBFAF20AFB1210FDF720F934B1012CBA
:103830000ED0022C2DD0032C15D134E0CDE9026539
:10384000CDE900874B2200210846DBF8003008E074
:10385000CDE90265CDE900874B2200210F20DBF87E
:103860000030FFF747FE641CE4B2042CD0D3CDE94E
:103870000265CDE90087134B4B2200211E20FFF784
:1038800039FE11490888401C0880BDE8FF5FFFF73A
:10389000BFBDCDE90265CDE900874B2200212D2077
:1038A000DBF80030DDE7CDE90265CDE900874B228A
:1038B00000213C20DBF80030D3E700001C00002092
:1038C00010000020B25200081800002010B5044675
:1038D000000A00F093F8E0B2BDE8104000F08EB8A6
:1038E00070B5094D06464FF4804400222146284613
:1038F000FDF73CFF304600F081F821462846BDE840
:1039000070400122FDF732BF000C01402DE9FF5F3E
:10391000364981464FF46160086000241A234FF451
:1039200097720221E420FFF7B8FC0025DFF8C0B051
:103930004FF00A0A4FF4784618274FF00F0800BFDF
:10394000C4F10300C1B20A2001F043FBB9FBF0F15E
:10395000B1FBFAF20AFB1210FDF788F834B1012C22
:103960000ED0022C2DD0032C15D134E0CDE9026508
:10397000CDE900874B2200210846DBF8003008E043
:10398000CDE90265CDE900874B2200210F20DBF84D
:103990000030FFF7AFFD641CE4B2042CD0D3CDE9B6
:1039A0000265CDE90087134B4B2200211E20FFF753
:1039B000A1FD11490888401C0880BDE8FF5FFFF7A2
:1039C00027BDCDE90265CDE900874B2200212D20DE
:1039D000DBF80030DDE7CDE90265CDE900874B2259
:1039E00000213C20DBF80030D3E700001C00002061
:1039F00010000020B25200081800002001B5044851
:103A00000223012269460068FEF7B0FB08BD0000F2
:103A1000140000203EB500211D48009101911B4A71
:103A200002910260921582600173017503244FF4C4
:103A300060220461C2614160FDF79CF908B1FDF7A5
:103A4000A9F8042000900120019006200290694608
:103A50000F48FDF70DF908B1FDF79CF8052000901F
:103A60000220019069460A48FDF702F908B1FDF706
:103A700091F80E20CDE9000469460548FDF7F8F8F5
:103A8000002801D0FDF786F83EBD0000002401406B
:103A900030000020154808B5416941F0010141613D
:103AA0004069002200F00100009005210B20FDF785
:103AB000CFFE0B20FDF7BEFE002205210F20FDF7F3
:103AC000C7FE0F20FDF7B6FE002205211020FDF7EE
:103AD000BFFE1020FDF7AEFE002205211120FDF7EC
:103AE000B7FEBDE808401120FDF7A4BE001002405B
:103AF000F0B585B000242348009401940294039407
:103B0000816941F020018161816901F02001049106
:103B1000816941F004018161816901F0040104912E
:103B2000816941F010018161816901F01001049106
:103B3000816941F0080181618069134F00F008003C
:103B40004FF4A0460490002231463846FDF70EFEA1
:103B5000202001258DE8310069460C48FDF70AFD5B
:103B600007208DE8310069463846FDF703FD022045
:103B7000CDE90240CDE9006569463846FDF7FAFC1B
:103B800005B0F0BD00100240000C014000100140E3
:103B9000104810B50E4901604FF482714160002158
:103BA00002228160C0E90312012242615202C0E98F
:103BB00006210162416281620A21C162FEF72AFA8E
:103BC000002803D0BDE81040FCF7E4BF10BD0000A2
:103BD00000380040A400002010B592B000240F94DB
:103BE0001C2168461094FCF7DAFA202107A8FCF79C
:103BF000D6FA24482249C0E9001441F61F41C0E921
:103C00000241046144618461FEF74FFF08B1FCF793
:103C1000C1FF0F940FA91B481094FEF71BFC08B1BD
:103C2000FCF7B8FF6020CDE90004029403940494EB
:103C300005940022694613480694FEF7D0FE08B1A9
:103C4000FCF7A8FF0C2269460E48FEF7C8FE08B133
:103C5000FCF7A0FF0794089409944FF400500A94CD
:103C6000CDE90B4007A907480E94FEF7C8FB08B141
:103C7000FCF790FF0348FEF773FE12B010BD000082
:103C8000002C01404001002010B58CB02421684672
:103C9000FCF785FA0024154809944FF080410A94F6
:103CA000C0E900144FF6FF71C0E90241046184616C
:103CB0000120CDE90004CDE902040494CDE90540DA
:103CC0000794694609480894FEF784FC08B1FCF79C
:103CD00061FF099409A905480A94FEF7BBFB002877
:103CE00001D0FCF757FF0CB010BD00008801002088
:103CF00010B58CB024216846FCF751FA0024154811
:103D0000099413490A94C0E900144FF6FF71C0E901
:103D10000241046184610120CDE90004CDE902047F
:103D20000494CDE90540079469460A480894FEF7D3
:103D300051FC08B1FCF72EFF099409A905480A9423
:103D4000FEF788FB002801D0FCF724FF0CB010BD63
:103D500000040040D001002010B58AB00024079470
:103D60001C2168460894FCF71AFA22482049C0E949
:103D7000001441F61F41C0E9024104618461FEF76D
:103D800094FE08B1FCF706FF079407A919480894A8
:103D9000FEF760FB08B1FCF7FDFE6020CDE90004F2
:103DA00002940022694613480494FEF718FE08B1F5
:103DB000FCF7F0FE042269460E48FEF710FE08B13B
:103DC000FCF7E8FE082269460A48FEF708FE08B13B
:103DD000FCF7E0FE0C2269460648FEF700FE08B13B
:103DE000FCF7D8FE0348FEF7BBFD0AB010BD00008B
:103DF000000800401802002010B58CB0242168464D
:103E0000FCF7CDF900241548099413490A94C0E938
:103E100000144FF6FF71C0E9024104618461012082
:103E2000CDE90004CDE902040494CDE905400794EE
:103E300069460A480894FEF7CDFB08B1FCF7AAFED4
:103E4000099409A905480A94FEF704FB002801D04B
:103E5000FCF7A0FE0CB010BD000C0040600200207A
:103E60001CB500240F4800940D490194016041F6EF
:103E70001F41C0E901146321C16080218161FEF707
:103E800027FB08B1FCF786FE0094694605480194BB
:103E9000FEF7E0FA002801D0FCF77CFE1CBD000014
:103EA00000140040A802002010B58CB02421684600
:103EB000FCF775F900241748099415490A94C0E9DC
:103EC00000144FF6FF71C0E902414FF48071C0E960
:103ED000041484610120CDE90004CDE902040F211E
:103EE0000491CDE90540CDE9074169460948FEF74F
:103EF00071FB08B1FCF74EFE099409A905480A9424
:103F0000FEF7A8FA002801D0FCF744FE0CB010BD63
:103F100000340140F00200200C4810B50A4901604D
:103F20004FF4E1314160002181600C22C160C0E9A1
:103F300004128161C161FFF7A9F8002803D0BDE830
:103F40001040FCF727BE10BD0038014038030020A8
:103F50000C4810B50A4901604FF4E131416000217D
:103F600081600C22C160C0E904128161C161FFF768
:103F70008DF8002803D0BDE81040FCF70BBE10BD43
:103F80000044004080030020FEE7000030B5154CDF
:103F900041F61F430028256804DDAB632568181A25
:103FA000686303E01844A86320684363002905DDC3
:103FB0002068C363581A2168086404E0C81821689F
:103FC000C863206803640848002A05DD01680B64A3
:103FD0000068991A416330BDD11802681164006805
:103FE000436330BD180200204001002010B5104886
:103FF000FEF75BFD0F48FEF758FD00210C48FEF769
:10400000A3FD0C210A48FEF79FFD00210948FEF799
:104010009BFD04210748FEF797FD08210548FEF7A0
:1040200093FDBDE810400C210248FEF78DBD000055
:1040300040010020180200202DE9F0470024174617
:10404000884625462646A14610F0FF4F05D001467A
:104050001A4800F04BF8044602E0184800F032F825
:1040600018F0FF4F06D015484146243000F03EF8C6
:10407000054603E01148243000F024F817F0FF4F04
:1040800006D00E483946483000F030F8064603E0C6
:104090000A48483000F016F83046FCF722FA064687
:1040A0002846FCF71EFA05462046FCF71AFA324667
:1040B0002946FFF76BFF4846BDE8F087809A00204D
:1040C000FEE700000021016041608160C160016184
:1040D0000349C1610349816103494161704700009F
:1040E00000009643CDCCCC3D0000F0412DE9F041DD
:1040F0000446084621606168FCF7AEF80546A060FA
:1041000029462069FCF756F8206107462846E168F1
:10411000FCF7A2F8E169FCF7A5F806463946A06964
:10412000FCF7A0F8074629466069FCF79BF839467A
:10413000FCF740F83146FCF73DF8216AFCF73AF805
:10414000E5602062BDE8F081704700000148FDF79E
:10415000F1BE0000A400002010B5406A0021C18714
:10416000C186FDF7E5FE10BD10B5406A01684A68DA
:1041700022F003024A60416D41F0100141650121C6
:1041800080F85110FDF7D4FE10BD10B5406AFEF75F
:104190001FF910BD38B50546446AFDF7EDFA024631
:1041A00028680068800623D42068416821F0200137
:1041B00041602068416821F002014160642120468D
:1041C00000F01AF818B1606D40F020006065A0683A
:1041D000002118B92068C26880680090E18601203B
:1041E00084F85100606D18B12046FDF7A1FE38BD7E
:1041F0002046FEF7D5F838BDF8B515460E460B46F5
:10420000009204460122022100F010F840B9334622
:10421000002280212046009500F008F8002804D0F4
:10422000606D40F0200060650320F8BD2DE9F84383
:104230001E46914688460446089DFDF79DFA401BA0
:10424000351AFDF799FA074625480068C0F3CB30C8
:10425000684338E0701C37D0FDF78EFAC01BA842C7
:1042600003D215B1009860B32CE02068416821F0BA
:10427000E00141606068B0F5827F0BD1A068B0F5C5
:10428000004F02D0B0F5806F04D12068016821F0A2
:1042900040010160A06AB0F5005F09D120680168A3
:1042A00021F4005101602068016841F4005101606F
:1042B000012084F85100002084F850000320BDE85C
:1042C000F8830025401E00902068816838EA0100CC
:1042D00004D000214945BDD10020F0E70121F9E7D4
:1042E0000C0000207047FDF74DBA30B595B028217D
:1042F0006846FBF754FF14210AA8FBF750FF18216A
:104300000FA8FBF74CFF01210804CDE900100025A0
:10431000029502240491CDE907404FF4E010099082
:104320006846FDF775FC08B172B6FEE70AA90F20D2
:1043300081E831004FF48060CDE90D0502210AA823
:10434000FDF78AFB08B172B6FEE74FF4004011900A
:104350000F940FA8FDF70AFB002801D072B6FEE704
:1043600015B030BD704700000148FEF761BA00008B
:10437000A8020020F0B50268204C214D214E224FAA
:10438000224B4FF0804CA04209D0984207D06045A4
:1043900005D0A84203D0B04201D0B84204D122F0E7
:1043A000700E4A6842EA0E02A04209D0984207D035
:1043B000604505D0A84203D0B04201D0B84203D135
:1043C00022F44075CA682A434D6922F080022A43CC
:1043D00002608A68C2620A688262A04201D0984282
:1043E00001D109690163012141610169C90703D054
:1043F000016921F001010161F0BD0000002C0140C4
:104400000004004000080040000C0040003401405F
:1044100010B501F01F030121046A99408C43046226
:10442000016A9A401143016210BD0000F0B5036AB1
:10443000026A22F00102026242688469124E24F08C
:1044400073050C682C4323F002058B682B430D4D3C
:10445000A84201D0B04205D123F00807CB683B4306
:1044600023F00403A84201D0B04205D14D6922F4E3
:10447000407215438A692A434260846149684163F6
:104480000362F0BD002C014000340140F0B5026A27
:10449000036A23F010030362436884690D6824F4FF
:1044A000E64444EA05248D6822F0200242EA05121F
:1044B0000F4D104EA84201D0B04206D1CF6822F075
:1044C000800242EA071222F04002A84201D0B04224
:1044D00007D14D6923F4406343EA85038D6943EABC
:1044E000850343608461496881630262F0BD000016
:1044F000002C014000340140F0B5026A036A23F445
:10450000807303624368C46922F4007224F0730567
:104510000C68124E2C438D6842EA05220E4DA842CB
:1045200001D0B04206D1CF6822F4006242EA0722ED
:1045300022F48062A84201D0B04207D14D6923F431
:10454000405343EA05138D6943EA05134360C46190
:104550004968C1630262F0BD002C01400034014093
:1045600030B5046A026A22F4805202624268C3696A
:104570000D6823F4E64343EA05238D6824F40054D0
:1045800044EA0534084DA84202D0084DA84204D19F
:104590004D6922F4804242EA85124260C361496853
:1045A0000164046230BD0000002C01400034014071
:1045B00010B5406A0021C185C184FEF711FC10BD11
:1045C00070B5446A2068406994F84110C0F3C01087
:1045D0000025212904D118B1E584204600F0B4F863
:1045E0002068406994F84210C0F38010222904D159
:1045F00018B1E585204600F080F8606C40F01000AE
:1046000060642046FEF7ECFB70BD10B50146406AC1
:10461000096809684FF0000289062ED4C285016836
:104620000C3151E8003F23F4807341E80034002C42
:10463000F5D10168143151E8003F23F0010341E84E
:104640000034002CF5D10168143151E8003F23F00B
:10465000400341E80034002CF5D1202180F84210BD
:10466000016B012909D101680C3151E8003F23F0A9
:10467000100341E80034002CF5D14263016B01299D
:1046800002D0FEF7C9FD10BD818DFEF779FB10BD8C
:1046900010B5406A01214163016B012902D0FEF788
:1046A000BCFD10BD818D4908FEF76AFB10BD10B539
:1046B0000146406A09680968890616D40021C18448
:1046C0000168143151E8002F22F0800241E80023F4
:1046D000002BF5D101680C3151E8002F42F0400267
:1046E00041E80023002BF5D110BDFEF7D3FD10BD2E
:1046F00010B5406AFEF7CFFD10BD01680C3151E8DE
:10470000002F22F4907241E80023002BF5D10168BC
:10471000143151E8002F22F0010241E80023002B60
:10472000F5D1016B012909D101680C3151E8002F45
:1047300022F0100241E80023002BF5D1202180F85F
:10474000421000210163704701680C3151E8002FCD
:1047500022F0C00241E80023002BF5D1202180F88F
:104760004110704708B590F84210222901D002206C
:1047700008BD82684FF480539A4201D1016921B18A
:10478000816A9A421BD04AB10AE00268816A526883
:10479000C2F308020A80816A891C08E0026972B1CA
:1047A0000268526802F07F020A70816A491C8162C5
:1047B000C18D491E0904090CC18503D01BE00268A4
:1047C0005268F1E70168CA6822F02002CA600168F5
:1047D000CA6822F48072CA6001684A6922F0010244
:1047E0004A61202180F8421000214163026B012AB6
:1047F00003D0FEF711FD002008BD016301680C31F4
:1048000051E8002F22F0100241E80023002BF5D1DF
:1048100001680A68D20602D50A6849680091818D4C
:10482000FEF7AEFAE7E7000070B5044600680169DC
:10483000E26821F44051114301612169A0680843F5
:10484000616908432168CA6841F20C639A430243D4
:10485000CA6020684169A26921F440711143416135
:104860001E492068884202D1FDF79CF901E0FDF75E
:1048700089F900EBC00101EB00126068642180003F
:10488000B2FBF0F3B3FBF1F36FF018067343B2FB26
:10489000F0F5B2FBF0F605EB8305322303EB0515CB
:1048A000B5FBF1F5B6FBF1F605F0F00505EB0615E5
:1048B000B2FBF0F6B2FBF0F0B0FBF1F06FF01802D3
:1048C000504306EB800003EB0010B0FBF1F02168D1
:1048D00000F00F002844886070BD000000380140DF
:1048E00038B5816204468285002013466064222226
:1048F00084F84220E56B1B4AAA62E56B1A4AEA6219
:10490000E56B1A4A2A63E26B50630A462168E06B42
:10491000091DFCF7E5FD20680168406800902069EA
:1049200048B120680C3050E8001F41F4807140E825
:104930000012002AF5D12068143050E8001F41F021
:10494000010140E80012002AF5D12068143050E837
:10495000001F41F0400140E80012002AF5D100207C
:1049600038BD00000B46000891460008C14500080C
:104970000148FEF755BA000080030020FEE7000062
:104980000FB4084B10B504A902AA039800F0B4F8BC
:10499000044602A9002000F0DAFA204610BC5DF8B7
:1049A00014FB00004F4F00080907090E002804DB24
:1049B00000F1E02080F80014704700F00F0000F1D3
:1049C000E02080F8141D704702E008C8121F08C1DB
:1049D000002AFAD170477047002001E001C1121F80
:1049E000002AFBD17047000000253748FCF7D4F8B7
:1049F000FFF7FCFAFCF796F8FEF7C0FD0120FCF784
:104A0000A7FDFEF7B3FE3148FFF75CFB3048FFF728
:104A100059FB3048FFF756FB304F2F490C223048E6
:104A20003960FEF788F92F480068016821F0040119
:104A300001602D48FDF798FDDFF8B0902C4CDFF8B1
:104A4000B48000266088F8B1606900280EDDA06996
:104A500000280FDAE068FBF726FD00224B46FBF743
:104A600033FCFBF76BFD2169494206E002DAA069DD
:104A70000028EFDC20694142E06800F0F1FAFEF71F
:104A800057FE6680E6602661062DDBD2DFE805F082
:104A900003050F1317190125D4E798F800004546C0
:104AA00018B1386800F09EFA2E700225CAE7FBF7AD
:104AB000A1FF0325C6E7FBF731FF0425C2E7052563
:104AC000C0E70025BEE7000030000020809A0020EB
:104AD000A49A0020C89A0020EC9A00202800002008
:104AE00080030020C8030020A80200200000E83F47
:104AF00050040020260000202DE9FF4F8DB00F4606
:104B00000546002606E025280BD0DDE90F12904768
:104B10006D1C761C28780028F5D111B03046BDE810
:104B2000F08F0024A246A1460122E94900E0044397
:104B300015F8013F203B02FA03F00842F7D128782C
:104B40002A2810D06FF02F022878A0F1300109290F
:104B500014D80AEB8A0102EB410144F0020400EB95
:104B6000010A6D1CF0E701CF5FEA000A03D544F4A7
:104B70000054CAF1000A44F002046D1C28782E2863
:104B800017D115F8010F44F004042A280ED06FF055
:104B90002F022878A0F1300109290AD809EB8901F0
:104BA00002EB410100EB01096D1CF2E757F8049B91
:104BB0006D1C28786C280FD006DC4C2817D068288C
:104BC0000DD06A2814D104E0742810D07A280FD1AF
:104BD0000DE044F400140AE044F4801401E044F4CD
:104BE00040146978814202D104F580146D1C6D1C5B
:104BF00028786E281ED00CDC632830D004DC002816
:104C00008BD0582811D19FE0642867D069280CD137
:104C100064E073282DD004DC6F2872D0702804D192
:104C200094E075286ED078286DD0DDE90F1290479A
:104C3000761C4BE1C4F30250022806D0032809D0A9
:104C4000042801CF09D0066040E101CFF117C0E987
:104C500000613BE101CF068038E1067036E117F8CC
:104C6000040B8DF8000000208DF80100EB460120B8
:104C700003E057F804BB4FF0FF3061074FF000012D
:104C800002D40DE008F10101884649450FDA80455C
:104C9000F8DB1BF808100029F4D108E008F1010145
:104CA00088468142FADB1BF808100029F6D1DDE9BD
:104CB0000F23AAEB08008146214600F031F9304469
:104CC00000EB080604E0DDE90F121BF8010B90472A
:104CD000B8F10108F7D221464846F2E00A21C4F3B0
:104CE00002524FF0000B0891022A04D001CFC117E5
:104CF000032A09D00AE0FF1D27F00707F7E80201A1
:104D000008E02CE01EE01FE000B2C117042A01D128
:104D100040B2C117021E71F1000206DA0023D0EB87
:104D2000030063EB01012D2202E0220504D52B22B2
:104D30008DF82420012203E0E20701D02022F7E7CA
:104D4000904653E00A210BE0102109E010214FF0BA
:104D5000000B44F004044FF00809089103E0082117
:104D60004FF0000B0891C4F30252022A04D001CF85
:104D70000021032A06D006E0FF1D27F00707F7E809
:104D8000020103E080B2042A00D1C0B24FF0000853
:104D900022072BD52A78702A07D0DDF820C08CF0A6
:104DA000100C5CEA0B0C05D00EE040228DF824209C
:104DB000012208E050EA010306D030238DF82430A8
:104DC0008DF8252002229046089B83F0080353EAC1
:104DD0000B030BD150EA010201D1620706D5302244
:104DE0008DF824204FF00108A9F101092A78582AEA
:104DF00004D038A20B9208AA0A920BE03AA2F9E773
:104E00005B46089AFBF701FC0B9B9B5C0A9A521EBF
:104E10000A92137050EA0102F2D10A98ADEB000039
:104E200000F1200B600702D524F4803401E04FF03C
:104E30000109D94502DDA9EB0B0000E0002000EBE1
:104E40000B0141440890AAEB010AE00306D4DDE916
:104E50000F232146504600F063F806444FF0000946
:104E600008E009A911F80900DDE90F12904709F1DE
:104E70000109761CC145F4DBE0030CD5DDE90F2305
:104E80002146504600F04CF8064404E0DDE90F12DC
:104E900030209047761C0899481E08900029F5DCC0
:104EA00008E00A980A990078491C0A91DDE90F1276
:104EB0009047761CBBF10001ABF1010BF1DC214600
:104EC0005046DDE90F2300F019F806446D1C21E679
:104ED00009280100303132333435363738396162D0
:104EE0006364656600000000303132333435363794
:104EF0003839414243444546000000002DE9F04165
:104F0000044600251E461746880404D405E03946A9
:104F10002020B0476D1C641EF9D52846BDE8F081FD
:104F20002DE9F041044600251E469046C80301D5F0
:104F3000302700E02027880404D505E041463846A4
:104F4000B0476D1C641EF9D52846BDE8F0810A689B
:104F5000531C0B601070704770B58AB0054628214D
:104F60006846FBF71CF900246E4604EB44002A5DFA
:104F7000304405A1FFF704FD641C0C2CF5D301207F
:104F8000FCF7E6FA0AB070BD253032582000000068
:104F9000FCF700FCFFF7A9F9FEF7AAFDFEF77AFD82
:104FA000FEF75EFFFEF7B8FFFEF7D2FFFEF7A0FEAA
:104FB000FEF7D2FEFEF7ECFDFEF766FEFEF72AFDD9
:104FC000FEF71AFFFEF708FEFEF76EFFFFF70CFD77
:104FD000FEE70246012000E05043491EC9B2FBD261
:104FE00070470000FEB50546002431E0295DAA297E
:104FF00003D129194A78552A01D0641C0AE00A68AD
:1050000000924A680192896802919DF8021009296C
:105010000FD101E0A4B21BE0002211460DF1020302
:105020005E5C491C72400929FAD39DF80B1091422D
:1050300001D0A41CEEE7DDF80310084A0BBADDF836
:10504000071084B209BAC2E905316846FFF784FF48
:1050500004F10C000C28C9D9FEBD0000500400204A
:105060003EB505460C464AF65520FBF76DF8ADF8FF
:10507000000009208DF80200CDF80350CDF807405C
:1050800000208DF80B000DF1020100BF9DF80B20F0
:105090000B5C401C5A408DF80B200928F6D30C22DB
:1050A00069460348FEF7BAF86846FFF755FF3EBD6C
:1050B00080030020010202030405060708090A0B09
:1050C0000C0D0E0F1010010202030405060708095B
:1050D0000A0B0C0D0E0F1010000000000000000065
:1050E000010203040607080900000000010203048E
:1050F00000C0F0F0F87838383878F8F0F0C00000E8
:10510000FFFFFFFF007E7E7E00FFFFFFFF0000032A
:105110000F0F1F1E1C1C1C1E1F0F0F030000C0E0E2
:10512000F0F078F8F8F8F8F800000000000101014C
:105130000000FFFFFFFFFF00000000001C1C1C1C04
:105140001C1F1F1F1F1F1C1C1C1C00E0F0F8F87800
:10515000383838F8F8F0F0C0000001018181C0E073
:10516000F0F8FF7F3F1F0700001E1F1F1F1F1F1D9E
:105170001C1C1C1C1C1C0000383838383838B8F887
:10518000F8F8F8783800000000001C1E1F1F1F3FB1
:10519000FDFCF8F00000070F1F1F1E1C1C1C1E1F2B
:1051A0000F0F0300000000000080E0F0F8F878180E
:1051B00008000000F0F8FCFFBF8F8781F8F8F8F8CE
:1051C000F8000003030303030303031F1F1F1F1F34
:1051D0000000F8F8F8F8F838383838383838380037
:1051E000001F1F1F1F1F0E0E0E1EFEFEFCF80000EC
:1051F000070F0F1F1E1C1C1C1E1F1F0F0700000087
:105200000000C0E0F8F8F838180000000000F8FED0
:10521000FFFF3F1F0F1E3EFEFCF8F00000070F0FC0
:105220001F1E1C1C1C1E1F0F0F030000F8F8F8F8AF
:1052300038383838F8F8F8F8F80000010101018032
:10524000E0F8FFFF7F1F030000000000101E1F1F7B
:105250001F0F01000000000000E0F0F8F878383877
:105260003878F8F8F0E00000E3F7FFFF3F1E1C1E5F
:105270003FFFFFF7E30000070F1F1F1E1C1C1C1E33
:105280001F1F0F070000E0F0F0F87838383878F882
:10529000F0F0E000000F1F3F3F3C38B8F8FCFFFF84
:1052A0007F1F0000000000181C1F1F1F07030000C5
:1052B00000000000000000000000000000000000EE
:1052C00000000000000000000000000000000000DE
:1052D000000000000E1F1F1F1F1F0E000000000017
:1052E000000080F0F8F8F8F8F8F88000000000807E
:1052F000F8FFFFFFDFC1DFFFFFFFF88000181F1F6F
:105300001F1F01010101011F1F1F1F1818F8F8F8C6
:10531000F88000000080F8F8F8F81800011FFFFF7F
:10532000FFF880F8FFFFFF1F0100000000011F1FB2
:105330001F1F1F1F0F010000000000005C5300082A
:105340000000002030000000C84900088C5300080D
:1053500030000020D89E0000D8490008010000005D
:10536000100000000000000000127A0000000000A1
:10537000A400002000000000000000000000000069
:0C53800000000000000000000000000021
:0400000508000131BD
:00000001FF
